:020000040800F2
:100000000009002061020008357400085D24000822
:10001000856B00087D210008238400080000000093
:10002000000000000000000000000000C976000889
:10003000F121000800000000C57400086178000884
:100040007B0200087B0200087B0200087B0200089C
:100050007B0200087B0200087B0200087B0200088C
:100060007B0200087B0200087B0200087B0200087C
:100070007B0200087B0200087B0200087B0200086C
:100080007B0200087B0200087B0200087B0200085C
:100090007B0200087B0200087B0200087B0200084C
:1000A0007B0200087B0200087B0200087B0200083C
:1000B0007B020008657900087B0200087B020008CB
:1000C0007B0200087B0200087B0200087B0200081C
:1000D0007B0200085D8000087B0200087B020008AC
:1000E0007B0200087B0200087B0200087B020008FC
:1000F0007B0200087B0200087B0200087B020008EC
:100100007B0200087B020008317A00087B020008AD
:100110007B0200087B020008F17B00087B020008DC
:100120007B0200087B0200087B0200087B020008BB
:100130007B0200087B0200087B0200087B020008AB
:100140007B0200087B0200087B0200087B0200089B
:100150007B0200087B0200087B020008A1800008E7
:100160007B0200087B0200087B0200087B0200087B
:100170007B0200087B0200087B0200087B0200086B
:100180007B0200087B02000800F002F800F058F83B
:100190000AA090E8000C82448344AAF10107DA45E2
:1001A00001D100F04DF8AFF2090EBAE80F0013F0DC
:1001B000010F18BFFB1A43F00103184748DA00008B
:1001C00068DA0000103A24BF78C878C1FAD852071C
:1001D00024BF30C830C144BF04680C6070470000C1
:1001E0000023002400250026103A28BF78C1FBD840
:1001F000520728BF30C148BF0B607047662909F01D
:100200008380642900F09880782900F0D1807329D8
:1002100000F08F84002070471FB509F068F800F0E7
:10022000ADFC04000020002108F050FC401C606080
:100230000020002108F034FCE0601FBD10B510BDA7
:1002400000F0F2FD1146FFF7E7FF08F027FB00F092
:1002500044FE03B4FFF7F2FF03BC08F043FA0000CA
:100260000948804709480047FEE7FEE7FEE7FEE74A
:10027000FEE7FEE7FEE7FEE7FEE7FEE70448054986
:10028000054A064B704700006578000889010008A0
:1002900000030020000900200005002000050020C8
:1002A000704700000FB4044910B503AA029800F08B
:1002B00045FC10BC5DF814FB740000200FB41CB5A5
:1002C000074B06AA7B4469460090059800F007FC9E
:1002D0000020694600F016FC1CBC5DF814FB000011
:1002E0003D08000070B50C460546012A05D0287867
:1002F000800600D5EA69002302E0012305E05B1CCB
:10030000934202D2E05C0028F9D1A869E618C01A2D
:10031000A861286A184428622846AFF3008004E0E8
:10032000D5E9012114F8010B9047B442F8D32846CF
:10033000AFF3008070BD00002DE9F04106460024B7
:1003400010687529314616A510D0AFF3008000283B
:1003500002DA404213A507E031688A0701D512A5E9
:1003600002E0490704D511A5012401E0AFF30080A4
:1003700000210A2206F1240709E0B0FBF2FCB0FBE1
:10038000F2F302FB1C00303078541846491C002858
:10039000F3D123462A463046BDE8F04100F031B99A
:1003A000000000002D0000002B00000020000000D5
:1003B00070B504460D4621461068AFF300802188D1
:1003C000090502D50F4A7A4402E00E4A7A440E32F9
:1003D000002104F1240305E000F00F060009965DFA
:1003E0005E54491C0028F7D120780023000704D56B
:1003F000702D02D009B1022311322046BDE87040B1
:1004000000F0FFB87ED700002DE9F0474FF0000A5A
:1004100089460446C0F820A02046E16888470028A5
:1004200076D0252806D0D4E901219047206A401CC7
:100430002062F1E7E168204600258847C4F81CA047
:1004400006460027C4F818A02A2E09D0304608F026
:1004500042F938B304EB8708303EC8F8186019E059
:1004600059F8041B204604EB87029161E168884734
:10047000012F064618D1E069002820DA25F0200572
:100480001DE0D8F8180000EB800006EB4000303883
:10049000C8F818002046E1688847064608F01BF9AE
:1004A0000028EED1012F0AD02E2E08D12046E16877
:1004B00088477F1C0646022F45F02005C4DBA06953
:1004C000002803DA404245F00105A061E80701D0A9
:1004D00025F01005B6B1A6F14100192802D8203642
:1004E00045F400654A463146204625604D46FFF7F3
:1004F00085FE58B1012806D0ED1D25F0070000F15A
:10050000080989E704E005F1040985E730468AE730
:10051000206ABDE8F087401ECAB210F8011F8A4267
:1005200002D00029F9D10020704710B5431C02E029
:1005300010F8011B71B18107FAD14FF0013202C8E6
:100540008C1A8C4314EAC211F9D0C01A0A0603D0DF
:10055000C01E10BDC01A10BD0A0401D0801E10BDFF
:100560000902FCD0401E10BD4FF000020429C0F06B
:10057000128010F0030C00F01B80CCF1040CBCF1D5
:10058000020F18BF00F8012BA8BF20F8022BA1EB27
:100590000C0100F00DB85FEAC17C24BF00F8012B0C
:1005A00000F8012B48BF00F8012B70474FF0000204
:1005B00000B5134694469646203922BFA0E80C5059
:1005C000A0E80C50B1F12001BFF4F7AF090728BF34
:1005D000A0E80C5048BF0CC05DF804EB890028BFB0
:1005E00040F8042B08BF704748BF20F8022B11F0D9
:1005F000804F18BF00F8012B704770477047704755
:1006000070472DE9F0470D4699469246044600F1A1
:1006100024080168880604D5E06921F010012160F2
:1006200000E00120A84201DD471B00E00027A1698E
:100630007A1902EB0900081AA0612078C00602D4DA
:100640002046AFF30080002608E0D4E901211AF823
:1006500006009047206A401C761C20624E45F4DB61
:100660002078C0060AD52046AFF3008006E0D4E922
:10067000012130209047206A401C2062381EA7F1DB
:100680000107F4DC07E0D4E9012118F805009047E0
:10069000206A401C2062281EA5F10105F3DC2046DB
:1006A000AFF300802078000602D50220BDE8F08775
:1006B0000120FBE770472DE9FF4F0C461E464FF027
:1006C000FF378BB0D2E90001DDF860800A908A46DE
:1006D000C1F30A5505B93D46002108464FF0000018
:1006E000BAF1000F00F4400005DA00EB80004FF48F
:1006F000400101EA50004FEA9059B9F1010F00DDC5
:10070000B9460A9850EA4A000ED044F61050A5F2B5
:10071000FF3545432F14B8F1000F1ED07542291E36
:100720001EDDC9F100021CE0B8F1010F4FF000001E
:1007300001D0302103E0F24305E02154401CB042D7
:10074000FBDB30460022002121540B99C1F80880C0
:10075000C1E900200FB0BDE8F08FBD1B6D1CDEE7C6
:100760004A4600DA694206A800F0E4FA06AB93E8CC
:10077000070003AB83E8070050460A9901F0C9F867
:100780008DE80700A0F500501F3800900398002D59
:100790000ADD42F21F014A460844002303A90390E0
:1007A000684601F075FB09E0A0F500504A461F3885
:1007B000002303A90390684601F094FB8DE807002D
:1007C0000004000C03D04FF0FF30410800E0104659
:1007D000B8F1000F03D00022009215461EE0751EEE
:1007E00005D400F0CFF9303262556D1EF9D5B3460D
:1007F0000122084302D000227F1C04E02078302828
:1008000001D100227F1E002A099784D01DE0112DFE
:1008100007DA00F0B7F9303262556D1C50EA010278
:10082000F5D1084302D00098C8B10EE00021681E3F
:1008300005E0235C625C63542254401E491C8142E3
:10084000F7DBAB46A81B401E0990002004F80B0004
:100850000B98099AC0F80880C0E9002B7AE71126A6
:100860004FF0000857E72DE9F04F88460446D21DA7
:1008700022F0070191B0D1E90001CDE90A0107F0AA
:10088000EAFD02460B98C00F01D02D2007E020683A
:10089000810701D52B2002E0202101EAC000032AB4
:1008A000099001D0072A05DB03464146204600F0A7
:1008B000AFF90BE12078800601D5E06900E0062061
:1008C000B8F1650F814606D0B8F1660F18D0B8F1BF
:1008D000670F70D131E00020B9F1110F009001DBFA
:1008E000112301E009F101030AAA01A90CA8FFF7ED
:1008F000E2FEDDE90C70002609F10105834647E0C0
:1009000001204B4600904FF000470AAA01A90CA80D
:10091000FFF7D1FEDDE90DB00C995D46002610B958
:1009200009F101000D18B9EB050003D4C0F1FF3641
:1009300009F10105A5EB09002BE0B9F1010F01DA7E
:100940004FF001090020B9F1110F0090484601DD78
:10095000112300E003460AAA01A90CA8FFF7ABFE89
:10096000DDE90C704D4600268346207800070AD446
:10097000AB4500DA5D4601A8012D04DD411911F8EF
:10098000011C302907D04F4502DA17F1040F04DAB1
:10099000012082460FE06D1EEEE7002F02DCED1B0A
:1009A0003E4403E0781CA84200DD7D1CB81B00F12A
:1009B000010A4FF000472078000703D4AA4501DB65
:1009C0004FF0FF3A0021B7F1004F0DF143088DF8C9
:1009D000431024D002202B23002F01DA7F422D2345
:1009E0000A21021EA0F1010000DC5FB197FBF1FCBF
:1009F00097FBF1F201FB1C7C17460CF1300C08F858
:100A000001CDEEE7A8F1010003702188090501D5A9
:100A1000452100E06521A0F1010800F8011C0998BA
:100A20000FA9A1EB0807FF1D00B10120411901EB3F
:100A3000EA70A1693844081A401EA0612078C006F7
:100A400002D42046AFF30080099828B1D4E90121EF
:100A50009047206A401C20622078C00622D520469C
:100A6000AFF300801EE0002E04DBB34502DD01A8D9
:100A7000805D00E03020D4E901219047206A401CCD
:100A80002062761CAAF101005FEA000A0AD100F098
:100A900075F8C0680168405CD4E901219047206A7C
:100AA000401C2062281EA5F10105DCDC07E0D4E92A
:100AB000012118F8010B9047206A401C2062381E63
:100AC000A7F10107F3DC2046AFF30080032011B04B
:100AD00041E6000001694A1C02610878704700B5D0
:100AE0008FB0CDE901310021059105497944CDE967
:100AF000031011466846FFF787FC0FB000BD0000E9
:100B0000E5FFFFFF0A6802F8010B0A60704710B5A5
:100B1000436913B1AFF3008001E0FFF7E3FB01206D
:100B200010BD127800F124010A7000224A700122DF
:100B3000EDE711684FF0FF32E9E70000074B70B5B1
:100B40000D467B44FFF7CBFF0446284600F064F9CE
:100B500010B14FF0FF3070BD204670BDAF7C00007B
:100B60007CB5054600236846CDE9003300F0AEF8B9
:100B70006946284607F09CFD7CBD00000048704790
:100B8000BC02002030B5B0F10A024FEA900E71F1BC
:100B900000034EEA817EB0EB0E0061EB91014FEA5B
:100BA000101E4EEA017E10EB0E0041EB11114FEAD0
:100BB000102E4EEA016E10EB0E0041EB11214FEAB0
:100BC000104E4EEA014E10EB0E0041EB1141401861
:100BD00041F100014FEAD00040EA41704FEAD101F3
:100BE00010EB80054FEA810444EA907444EB010461
:100BF0006D1944EB0404521BA3414FF0000348BF9E
:100C00000A3200D530BD401C41F1000130BD00006A
:100C10002DE9F0411F46044603260168072A01F426
:100C2000006004DB08B116A505E016A503E008B1D5
:100C300015A500E015A521F010002060A069C01ED8
:100C4000A0610FB1401EA0612046AFF300804FB1FC
:100C5000D4E9012138469047206A401C2062C01C1C
:100C6000206206E0206AFAE7D4E9012115F8010BB9
:100C70009047761EF8D22046AFF30080BDE8F081A1
:100C80004E414E006E616E00494E4600696E660030
:100C90000FB4002300B589B00CA900910B99CB606B
:100CA000214B7B440693214B7B44079304236FF035
:100CB0000042CDE901321E4A7A446B460892024650
:100CC000002008F083FB09B05DF814FB70B5064600
:100CD0004FF0FF3015460C46324686B00091CDE904
:100CE000010169460020049004A8FFF7D1FF0246E5
:100CF0000498211825B108B1084600E02046286074
:100D0000049800280DD0002A02DD0098884208D0FF
:100D10003246081B69460094CDE9010404A8FFF798
:100D2000B7FF06B070BD0000F50100000D02000025
:100D3000CD0100002DE9F047814616468AB03548BE
:100D400078440DC88DE80D0032487844801C03AC0F
:100D50000DC884E80D0041F69B300844372190FB14
:100D6000F1F290FBF1F5A5F1800501FB12041B3CAB
:100D700002D56442012000E00020DFF898A0804600
:100D80000027FA44AAF1BE0A0EE0E0070AD0324674
:100D9000684607EB470101230AEB810101F0A2F845
:100DA0008DE8070064107F1C002CEED1194F7F44A2
:100DB000AE3F19E0E80715D007EB04100DF1180A53
:100DC00090E80E008AE80E00C068F04201D1981940
:100DD00008903246012306A903A801F083F803AB6B
:100DE00083E807006D10641C002DE3D14FF0010370
:100DF00032466946B8F1000F03A802D001F048F866
:100E000001E001F06FF8C9E90001C9F808200AB053
:100E1000BDE8F087A8CE0000007B00F0800070479E
:100E2000004870479C0200207546FFF7F9FFAE4668
:100E300005006946534620F00700854618B020B5E6
:100E4000FFF71CFABDE820404FF000064FF0000706
:100E50004FF000084FF0000B21F00701AC46ACE862
:100E6000C009ACE8C009ACE8C009ACE8C0098D46CF
:100E7000704710B500F082F8006810BD10B5044648
:100E800000F07CF8046010BD10B5044600F06EF868
:100E90000068005D00F0010010BD426842B10168C9
:100EA00011F8013B23B1521EC0E9001218467047E9
:100EB0000121C160881E704742685AB1C368016849
:100EC00043B983688B4205D0491E521CC0E9001209
:100ED000002070474FF0FF30704710B50446AFF365
:100EE00000802046BDE81040FFF7B3B94FF0013C49
:100EF00050F8042B51F8043B9A4221D1A2EB0C0389
:100F0000934313EACC1317D150F8042B51F8043B48
:100F10009A4215D1A2EB0C03934313EACC130BD1E5
:100F200050F8042B51F8043B9A4209D1A2EB0C0370
:100F3000934313EACC13DBD04FF00000704700BF9F
:100F4000D01A01BAB1FA81F101F0180122FA01F0C8
:100F5000CB40C1F12001DBB2C0B2C01A2CFA01F3C0
:100F6000D11A914311EAC311E6D1704710B5FFF7CA
:100F700005FE001D10BD00BF557B000000487047F6
:100F80009C0200202DE9FF4F06468BB00878FF2811
:100F900006D0491C2D2805D000244FF0000908E098
:100FA00000200CE00124F8E709EB8903491C00EB61
:100FB00043090878FF28F7D114B1C9F10000814630
:100FC000107800252C46AA4629462D2801D02B282A
:100FD00004D1521C2D2813D0002082468B46107855
:100FE000FF280FD04FF0000C0A21521CA5FB0178FE
:100FF00004FB018105FB0C11C5194BEB0104EEE765
:101000000120EAE7002108464FF00000BAF1000F86
:1010100002D000EB80004008C0F38157012F01DDB2
:101020004FF0FF370E9955EA040009EB01080BD089
:101030004FF0020918F5FA7F16DA4FEACA70002F4E
:10104000706008DD012007E04FEACA70C6E900B011
:101050000FB0BDE8F08F00203060FFF78FFFC0F8C1
:1010600000901821084616E0B8F5FA7F18DD002F29
:1010700002DAF748784401E0F6487844D0E90010F5
:10108000C6E9001040EACA707060FFF777FFC0F849
:101090000090142108460FB0BDE8F04F08F031B9B8
:1010A000002108464FF00000B8F10001099002DA73
:1010B000C7F1000200E03A4601DAC8F1000106A8D3
:1010C000FFF738FE06AB93E8070003AB83E80700A1
:1010D00044F23E005BEA04010090584604D144F219
:1010E0001E012C465D460091210C0904014306D1E6
:1010F0000099240444EA15442D041039009104F0A9
:101100007F41014306D10099240244EA15642D026F
:101110000839009104F07041014306D1009924017F
:1011200044EA15742D01091F009104F04041014368
:1011300006D10099A40044EA9574AD00891E00917F
:1011400004F00041084304D100986D196441401E29
:1011500000904FF001033A466846B8F1000FCDE920
:10116000014503A902DD00F0D2FE01E000F0A5FE7A
:10117000BAF1000F04460D4601D084F0004400216E
:1011800008464FF00000099940F2FF77484010F000
:101190000C0F07D124F00040284303D0C4F30A50B9
:1011A000B84212D1FFF7EAFEC0F80090C4F30A502B
:1011B000B8420AD1A8487844D0E90010C6E9001026
:1011C00004F000410843706042E7C6E900543FE77D
:1011D0002DE9FF4F1F464FF0000A4FF0FF384546FC
:1011E00091B0D7E90146CDF83CA0FFF7C7FCC06835
:1011F0000168405C1090B96912986D1C8847396A83
:10120000814688470028F6D1B9F1FF3F0AD0002E69
:1012100024F4D06411DDB9F12B0F08D0B9F12D0FF2
:101220000BD102E0404615B013E744F48064B9697D
:1012300012986D1C8847761E8146600504A901D569
:101240002D2000E02B20002E01F1010B0DF13008C4
:101250008DF810003FDDB9F1690F08D0B9F1490FE1
:1012600005D0B9F16E0F02D0B9F14E0F1CD13B463B
:1012700001A8009580E85002DDE912126FF002002B
:1012800008F0A8F8C11CCED10EE0B96912986D1C07
:10129000884781461398761E44F4007405600F98C1
:1012A000401C002E0F9016DDB9F1300FEDD0B9F1D2
:1012B000780F02D0B9F1580F0DD10F9801280AD13B
:1012C0003B46CDE90054DDE91212001F029608F0FA
:1012D0007FF8C11CA7D1109989453ED144F0800404
:1012E00006E01399681CAAF1010A44F4007408602E
:1012F000B9696D1C1298761E884730288146F0D057
:101300002BE01099894505D1200603D4761E44F0C0
:10131000800418E0484607F0DEF908B3761E0DF1A8
:1013200023018B4544F4007408D2A9F130000BF876
:10133000010B200607D5AAF1010003E0200602D424
:101340000AF101008246A00502D51399681C0860C5
:10135000B96912986D1C88478146002ED1DC53E094
:10136000002E51DDB9F1650F02D0B9F1450F4BD117
:10137000A00549D5B9696D1C1298761E24F44074F5
:101380008847002E81460CDD2B2804D0B9F12D0FA3
:1013900007D144F48074B96912986D1C8847761E91
:1013A0008146E00501D52D2100E02B2108F8011B25
:1013B000CDF8008021E0761E0DF13901884544F416
:1013C00000740CD2A9F1300010F0FF0088F8000082
:1013D00002D10099884509D908F1010806E0E00525
:1013E00001D51E4801E042F20F708246B969129899
:1013F0006D1C8847814613980560002E04DD484621
:1014000007F069F90028D6D1F96912988847FF20BA
:1014100053468BF8000088F8000000200A900B90DB
:1014200004AA0CA90AA8FFF7ADFDA00502D46FF02D
:101430000100F8E614F0240F12D0E0071CD1386840
:10144000DDE90A12031D3B600068C0E9001213E0E9
:10145000B4CB0000A6CB00006ACA0000F1D8FFFFA1
:101460000AA9684607F024F9E00705D13868009A10
:10147000011D3960006802602846D4E62DE9FF4F5F
:101480001F464FF03C0987B04FF00042DDE91410D1
:1014900001F10108DDF858A002EA40500390002055
:1014A00005908346054604460490B969461E08988F
:1014B0008847AAF1010A0290BAF1000F3BDD0298B9
:1014C0002E2815D0102100F016FA00282EDB4FF040
:1014D000010B0599014317D0B9F1000F0BDB4A4608
:1014E000C11700F0F5F905430C43A9F1040905E023
:1014F000012004900BE008B145F0010501200590A2
:10150000049820B9361D02E0049800B1361FB9696D
:10151000089808F101088847BBF1000FAAF1010AF9
:101520000290C9D00999C1F80080C5E702987028D7
:1015300008D0502806D0F96908988847BBF1000FF9
:1015400014D04FE0002002900120BBF1000F049066
:1015500009D0B969089808F101088847AAF101097A
:10156000B9F1000F07DCF969089888476FF00100AE
:101570000BB0BDE8F08F2B2804D02D280CD14FF0F4
:10158000FF300490B969089808F101088847A9F16B
:101590000109B9F1000FE6DD411CE4D00A2100F099
:1015A000AAF90028DFDB029908F1010801EB8101AB
:1015B00000EB41000290B969089888470A2100F0C1
:1015C0009AF9099AA9F10109B9F1000FC2F800804E
:1015D00001DD0028E7DAF96908988847049902983C
:1015E00000FB016655EA040004D004F04041090004
:1015F00002D006E0039898E0A40044EA9574AD0098
:10160000B61E04F00041080002D16D196441761E37
:10161000159810F0240F03D04FF00B095C4803E03D
:101620004FF028096FF07D008246564507DAAAEB95
:1016300006018944B9F1410F01DD4FF04109012054
:101640000021A9F1010200F043F9024628400B46AF
:101650002140084301D0012100E00021501E0291E9
:1016600043F1FF3128402140084301D0012000E030
:1016700000200299834651EA0B014FD00021084611
:101680004FF00000039900F4400039B100EB8000F6
:101690004FF4400100EBD07001EA60008015012892
:1016A00002DD4FF0FF3000E013D0401C36D002982E
:1016B00060B3BBF1000F0CD14A460120002100F0BD
:1016C00007F928402140084301D0012000E0002014
:1016D000E0B101204A46002100F0FAF80346401923
:1016E0000A4661412D1A8C4111D3B9F1400F09DD31
:1016F000159810F0240F02D0AAF1340603E0AAF1E5
:10170000170600E0761C00254FF0004406E05B1E43
:1017100042F1FF3220EA030521EA0204CAF1010086
:10172000B04206DA1B49039808430190002000905C
:101730000EE0039AC4F3D321E80A0A43164940EAAB
:1017400044500A433146CDE90002684606F0B9FF2D
:10175000159810F0240F0BD01598C00715D13868D4
:10176000DDE90012031D3B600068C0E900120CE0D7
:1017700002A8694606F09CFF1598C00705D1386895
:10178000029A011D3960006802604046F0E60000E0
:1017900002FCFFFF0000F07F0000F03F2DE9FF4F4B
:1017A00092461D4685B04FF00041DDE9124BDDE960
:1017B00014727F1E01EA4B50414940F0FF4940EA54
:1017C0000108002122F020004928049102D04E286F
:1017D00028D04CE03BA0012607C88DE80700A96986
:1017E0000698641C88477F1E014606D41DF8060033
:1017F00018B121F0200181420BD0E9690698884791
:10180000032E34D0082E32D06FF0010009B0BDE8AD
:10181000F08F761C032E01D0082EE0D1601CCAF890
:101820000000DCE7A9690698641C88477F1E2AD45B
:1018300020F02000412826D1A9690698641C884719
:101840007F1E20D420F020004E281CD1A9690698C4
:10185000641C88477F1E48F4002849F48009CAF8B0
:10186000004001D4282806D0E969069888475FEA35
:10187000CB7012D022E0A9690698641C88477F1EAD
:1018800001D4002803DAE96906988847BCE72928CB
:10189000F1D1641CCAF80040E9E71BF0240F07D01F
:1018A00028680499031D2B600068C0E9001805E052
:1018B0002868021D2A600068C0F800902046A5E74D
:1018C0000000F07F494E46494E495459000000003F
:1018D000B2F120030AD5C2F1200301FA02F120FA85
:1018E00003F300FA02F041EA0301704700FA03F142
:1018F0004FF0000070473A2800D2303820F0200224
:10190000412A01D3A2F13700884201D34FF0FF30C2
:1019100070475FEA400C08BF91F0000F4FEA8C233C
:101920004FEAC12243EA51514FEA1C5018BF00F55B
:10193000F0404FEA300018BF41F000415FEA6C5CB4
:1019400000F02980BCF1FF3F08BF40F080407047A5
:10195000130C06BF12044FF0100C4FF0000C130EC6
:1019600004BF12020CF1080C130F04BF12010CF19A
:10197000040C930F04BF92000CF1020CD30F04BFB0
:1019800052000CF1010C11464FF00002A0F11F00B3
:10199000A0EB0C00704711F0004F08BF704731F00A
:1019A00000413FF4D5AF0B0C06BF09044FF0100CFB
:1019B0004FF0000C0B0E04BF09020CF1080C0B0FCA
:1019C00004BF09010CF1040C8B0F04BF89000CF15A
:1019D000020CCB0F04BF49000CF1010CCCF1200329
:1019E000A0EB0C0022FA03F302FA0CF241EA030125
:1019F00000F10100704720F07F4C80EA030023F0E3
:101A00007F47ACEB070303F57C5300F0004003F184
:101A1000FF032DE980494FEA154B09B44FEA1443FF
:101A200025EA0B4E24EA03480FF2042606EB13279F
:101A300049083E785FEA320203FB0667C7F50007F4
:101A400007FB06F64FEA54374FEAD64606F1020680
:101A500007FB066CCCF1005C4FEA1C472CEA074CF4
:101A600007FB06F40CFB06F504EB15464FEA961649
:101A700034BF00204FF000404FEAD13706FB07FC8F
:101A80004FEA1C4C0CFB0BF7D21B03FB0CF761EB72
:101A900007010CFB0EF7B0EB074072EB17420CFB93
:101AA00008F734BFA2EB0742B2EB074261EB1741E4
:101AB0004FEA0C444FEA910706FB07FC4FEA1C4C27
:101AC0000CFB0BF7B0EBC74072EB573203FB0CF784
:101AD00034BFA2EBC742B2EBC74261EB57310CFBFC
:101AE0000EF7B0EBC70072EB57720CFB08F734BF70
:101AF000A2EBC702B2EBC70261EB5771039F4FEA3B
:101B0000816141EA921104EBCC044FEAD1374FEAEC
:101B1000826206FB07FC42EA90124FEA80604FEABD
:101B20001C4C0CFB0BF7D21B03FB0CF761EB070102
:101B30000CFB0EF7B0EB074072EB17420CFB08F7FB
:101B400034BFA2EB0742B2EB074261EB17414FEA09
:101B50008C554FEA910704EB9C2406FB07FC4FEAE7
:101B60001C4C0CFB0BF7B0EBC74072EB573203FB7E
:101B70000CF734BFA2EBC742B2EBC74261EB57315F
:101B80000CFB0EF7B0EBC70072EB57720CFB08F7BB
:101B900034BFA2EBC702B2EBC70261EB577115EB82
:101BA0004C254FEA816141EA92114FEA82624FEA85
:101BB000D13742EA901206FB07FC44F100044FEAD9
:101BC00080604FEA1C4C0CFB0BF7D21B03FB0CF79D
:101BD00061EB07010CFB0EF7B0EB074072EB17420D
:101BE0000CFB08F734BFA2EB0742B2EB074261EBF4
:101BF000174115EB1C154FEA813141EA92414FEA3A
:101C0000823242EA90424FEA80304FEA0C7644F149
:101C1000000448EA03434EEA0B484FF0000EB2EBD3
:101C2000080C71EB030724BF624639464EEB0E0EDB
:101C30004FF0000B0018524149414BEB0B0BB2EB3C
:101C4000080C71EB03077BF1000B24BF6246394699
:101C50004EEB0E0E4FF0000B0018524149414BEB7A
:101C60000B0BB2EB080C71EB03077BF1000B24BFED
:101C7000624639464EEB0E0E51EA020718BF46F097
:101C8000010616EB0E7655F1000254F1000103D562
:101C9000BDE88901BDE80088BDE88901BDE80048CC
:101CA000B619524141EB0101A3F101037047808055
:101CB0007F7E7D7C7B7A79787776767574737271A6
:101CC00071706F6E6E6D6C6C6B6A6A69686867665E
:101CD00066656464636362616160605F5F5E5E5DF0
:101CE0005D5C5C5B5B5A5A59595858575756565564
:101CF00055555454535352525251515050504F4FC6
:101D00004F4E4E4D4D4D4C4C4C4B4B4B4A4A4A4915
:101D10004949484848474747474646464545454458
:101D20004444444343434342424242414141000010
:101D300046EA0646A3F570534FEA164646EA42566F
:101D40004FEAD22242EA415210B54FEAD121A3F123
:101D5000010300F02FF820F0004000F1020C00F029
:101D6000004701EB00501146BCF5006F40EA070048
:101D700000D210BDBAF1000F0AD01CB503B44FF069
:101D800004004FF004014FF000000FBCBDE810400C
:101D90004FF00001BBF1010FB9BF04484FF0FF3114
:101DA0000348002140EA070010BD00BFFFFFEF7F9E
:101DB0000000F07F002B9C4630D477002BD01CB560
:101DC0004FEA370703B44FF010004FF01001BAF19B
:101DD000000F06D0BCF1000FDCBF40F0080040F05F
:101DE00008014FF000000FBCBDE810400BF1010BE3
:101DF000BBF1010F08BF5FEA170722BF12F1010212
:101E000011F101014FF0004143F1000300F00040E7
:101E100043EA00007047F9D35708D0E746EA064680
:101E200013F1400F4FEA16461FDD13F1200FDFBFFD
:101E300016430A46002120335B42BED0C3F120077F
:101E400046EA064602FA07F74FEA164646EA07064A
:101E5000C3F1200722FA03F201FA07F721FA03F18E
:101E60004FF0000342EA0702A7E746EA020646EA05
:101E700006464FEA164646EA0106BCBF46EA064653
:101E8000360C4FF000034FF000024FF0000194E7D2
:101E90002DE9804C9A46934670B491E8380007C803
:101EA00031EA400C48BF34EA430C03D5FFF7A3FDE9
:101EB000FFF780FFF0BCBDE8008C2DE9804C9A460E
:101EC000934670B491E8380007C831EA400C48BF27
:101ED00034EA430C03D5FFF78EFDFFF729FFF0BC72
:101EE000BDE8008C2DE9804C9A46934670B491E889
:101EF000380007C810F0804F08BF13F0804F03D19F
:101F000000F01AF8FFF756FFF0BCBDE8008C2DE991
:101F1000804C9A46934670B491E8380007C810F098
:101F2000804F08BF13F0804F03D100F005F8FFF792
:101F3000FFFEF0BCBDE8008C20F07F4780EA030084
:101F400023F07F4C07EB0C03A3F57C5300F000401B
:101F5000A3F1FE0392F0000F00F0B38095F0000FA4
:101F600000F077802DE901494FEA11404FEA14460D
:101F700021EA004800FB06FC24EA064708FB06F6B7
:101F800007FB08F800FB07F718EB06484CEB164C6C
:101F90004FEA124B18EB07484FEA15464CEB174037
:101FA00022EA0B4E0BFB06FC25EA06470EFB06F663
:101FB00007FB0EFE0BFB07F71EEB064E4CEB164C19
:101FC0004FF000061EEB074E4CEB174B18EB0B08BF
:101FD00040F1000018EB0E0B58EB000840F1000038
:101FE0008F1A4FF000013CBFC943661B14BFB5EB0D
:101FF000040C00213CBFC943F61B4FEA17444EEACC
:102000008E0E27EA04454FEA1C4704FB07622CEAC0
:10201000074C05FB07F70CFB05F604FB0CFC16EB65
:10202000074642EB174216EB0C4642EB1C421BEBF9
:10203000060658EB0202414146EA9E0601D5BDE87C
:102040000189B619524141EB0101A3F10103BDE839
:1020500001894FEA14454FEA114724EA054621EA6F
:10206000074C05FB07F406FB07F70CFB06F105FB25
:102070000CFC11EB074144EB17444FEA124711EBFC
:102080000C4144EB1C4422EA074C05FB07F206FB1B
:1020900007F70CFB06F605FB0CFC16EB074642EBBC
:1020A000174216EB0C4642EB1C456A1854F100012E
:1020B00048BF7047B619524141EB0101A3F101033A
:1020C000704795F0000F37D04FEA11424FEA14479E
:1020D00021EA024624EA074C02FB07F106FB07F758
:1020E0000CFB06F402FB0CFC14EB074441EB17411C
:1020F0004FEA154714EB0C4441EB1C4125EA074C11
:1021000002FB07F506FB07F70CFB06F602FB0CFCCF
:1021100016EB074645EB174516EB0C4645EB1C4204
:10212000121951F1000148BF7047B619524141EBF5
:102130000101A3F1010370474FEA14454FEA11472B
:1021400024EA054621EA074C05FB07F106FB07F7E1
:102150000CFB06F24FF0000605FB0CFC12EB0742ED
:1021600041EB174112EB0C4251EB1C4148BF704749
:10217000921841EB0101A3F10103704700BFFEE794
:1021800038B50446092C15D2DFE804F005080B1415
:10219000111414140E0005F0CBF814E004F074FDD3
:1021A00011E004F025FE0EE004F028FF0BE004F03F
:1021B000D7FF08E0202002232246AE210090002015
:1021C00004F036FC00BF00BF38BD000010B5002091
:1021D0000649C1F8000181F80401C1F808014FF473
:1021E00080710248FEF7E2F910BD0000E80000200F
:1021F000704700001CB50121202005F065F9402042
:10220000009001208DF8040003208DF805000020C7
:102210008DF8060001208DF807006946014800F09E
:10222000A7F81CBD0014024051B18200A2F1C042C7
:10223000126842F001038200A2F1C042136009E07B
:102240008200A2F1C0421268034B1A408300A3F13E
:10225000C0431A6070470000FEFF0F00D0E9011272
:102260001143C268114302691143426911438269F3
:102270001143C2691143026A1143426A1143826ADF
:102280001143C26A1143026B114302689200A2F12A
:10229000C0421160816808290BD101688900A1F151
:1022A000C041096841F0400201688900A1F1C041C4
:1022B0000A60416B0968426B526841EA0211426B45
:1022C000926841EA0221426B928941EA0241426BE3
:1022D000128A41EA0251426B127D41EA0261426B6D
:1022E000926911430268521C9200A2F1C04211602F
:1022F000C16AB1F5804F1BD1816B0968826B52684E
:1023000041EA0211826B926841EA0221826B128AD1
:1023100041EA0251826B127D41EA0261826B92694D
:10232000114302689200A2F1C042C2F8041107E012
:102330006FF0704201688900A1F1C041C1F8042129
:102340007047000010B5FFF741FF01200449C1F8B4
:102350000801052203A1054806F065F8012010BD1B
:10236000E8000020694641434D0000000014014090
:10237000F0B50A4600210023002400BF3DE00125FE
:1023800005FA01F3156805EA03049C4234D1056897
:102390004F000326BE40B543056015794E00B54099
:1023A0000668354305601579012D02D01579022D97
:1023B00016D185684F000326BE40B5438560557928
:1023C0004E00B540866835438560456801268E40DD
:1023D000B5434560456896798E40B6B23543456051
:1023E000C5684F000326BE40B543C560D5794E0091
:1023F000B540C6683543C560491C1029BFD3F0BD40
:10240000F0B5002300244D07ED0E02FA05F3CE10BF
:1024100000F1200555F826504E07F70E0F26BE4056
:10242000B543CF1000F1200646F82750CE1000F13A
:10243000200555F8265045EA0304CE1000F120058A
:1024400045F82640F0BD0246002013690B400BB151
:10245000012000E0002070474183704700BFFEE785
:1024600000B587B00121102005F05EF80121084673
:1024700005F02AF80121880305F046F80722092112
:102480002348FFF7BDFF07220A212148FFF7B8FFC5
:102490004FF4C060059002208DF8180000208DF8E0
:1024A0001A0001208DF81B0002208DF8190005A9E3
:1024B0001748FFF75DFF25208DF8000000208DF8FC
:1024C000010001208DF80300684604F0B5FF4FF4C9
:1024D000E13001900020ADF80C00ADF80A00ADF835
:1024E00008000C20ADF80E000020ADF8100001A986
:1024F000084805F023FF012240F22551054805F068
:10250000F8FE0121034805F0B1FE07B000BD000050
:10251000000002400010014010B500F06DF800F01E
:1025200003F8FFF79DFF10BD00B587B00121202003
:1025300004F0FAFF0121402004F0C6FF01214020F1
:1025400004F0C2FF082209212948FFF759FF082299
:102550000E212748FFF754FF4FF40070019002202E
:102560008DF8080000208DF80A0002208DF809007F
:1025700001A91F48FFF7FCFE4FF4804001900220A4
:102580008DF8080000208DF80A0002208DF809005F
:1025900001A91748FFF7ECFE47208DF80000002046
:1025A0008DF8010001208DF80300684604F044FF17
:1025B0004FF4E13003900020ADF818000C20ADF886
:1025C00016000020ADF81400ADF81200ADF81000B0
:1025D00003A9084805F0B2FE012240F22551054842
:1025E00005F087FE0121034805F040FE07B000BD5D
:1025F000001802400014014010B56FF0040005F00F
:102600001BF90A4800680A49B0FBF1F00949088043
:102610000846008800EB4001C1EBC0104FF6FF7187
:1026200001EAC0000449088010BD000044000020F9
:1026300000127A00E0000020E20000201CB5012119
:10264000602004F041FF3020009000208DF804004D
:1026500003208DF8050000208DF807006946054825
:10266000FFF786FEC020009069460348FFF780FE12
:102670001CBD0000001402400018024070B5002587
:10268000002409E0204604F0D3FF18B90120A0403F
:102690002843C5B2601CC4B2042CF3DB284670BDCD
:1026A00070B50446002617480588408845431548FC
:1026B000808846F60401884216D1124880790128A4
:1026C00012D100200F4988712A2048812B2088814F
:1026D0000021084604F03AF801200A4988712B20AD
:1026E00048812A20888103E00021084604F02EF862
:1026F00004F034FA002602E003480480761CAE425F
:10270000FAD370BD820200208000006C10B5044630
:10271000002C66D16C498871F02008804FF4A070BD
:1027200048800846808849F2413188420BD066488B
:10273000808846F60401884205D06348808845F2C7
:10274000103188421AD12C205F4908812A20488103
:102750002B2088810846808846F60401884205D0EF
:102760005948808845F21031884206D14FF4A07054
:10277000554908804FF4F0704880A1E052488088A5
:1027800045F21051884210D14FF430504E49088123
:102790004FF4285048814FF42C5088814FF4F0704A
:1027A00008804FF4487048808AE04748808841F6A6
:1027B000631188420DD12C20434908812B20488188
:1027C0002A2088814FF4F07008804FF448704880C8
:1027D00076E022203C490881202048812120888100
:1027E0006EE00120384988714FF4A0700880F02015
:1027F00048800846808849F24131884205D03248F5
:10280000808845F21031884207D12C202E4908815A
:102810002A2048812B2088813FE02B48808846F67B
:102820000401884207D12C20274908812B204881A8
:102830002A20888131E02448808845F2105188425E
:1028400010D14FF43050204908814FF4285048816E
:102850004FF42C5088814FF4487008804FF4F0708A
:1028600048801AE01848808841F6631188420DD1EB
:102870002C20154908812A2048812B2088814FF47B
:10288000487008804FF4F070488006E022200E491E
:10289000088121204881202088810B48808846F6C5
:1028A0000401884205D00848808845F210318842EA
:1028B00006D14FF4F070044908804FF4A0704880AE
:1028C000002003F0CDFD10BD8202002070B504464B
:1028D0000D4616465B48808849F24131884205D052
:1028E0005848808845F21031884214D155494889AA
:1028F00004F028F9201204F019F9E0B204F016F9F6
:102900005049888904F01EF9281204F00FF9E8B242
:1029100004F00CF98CE04B48808845F21051884255
:1029200020D14849488904F00DF9201204F0FEF83E
:1029300044494989491C88B204F004F9E0B204F022
:10294000F5F84049888904F0FDF8281204F0EEF803
:102950003C498989491C88B204F0F4F8E8B204F0D3
:10296000E5F865E03748808841F66311884228D150
:102970003448807920B933480088401E001B84B257
:102980003049488904F0DEF8201204F0CFF8E0B2B4
:1029900004F0CCF8201204F0C9F8E0B204F0C6F854
:1029A0002849888904F0CEF8281204F0BFF8E8B26C
:1029B00004F0BCF8281204F0B9F8E8B204F0B6F854
:1029C00036E02048808846F6040188421DD11D4823
:1029D0008079012804D11B480088401E001B84B266
:1029E0001849488904F0AEF8201204F09FF8E0B2CC
:1029F00004F09CF81349888904F0A4F8281204F024
:102A000095F8E8B204F092F812E00E4880790128B7
:102A100004D10C480088401E001B84B20949488933
:102A2000214604F0A5F807498889294604F0A0F852
:102A300004480089044908804FF0D840A0F880601D
:102A400070BD0000820200207E00006C00B5A1B0C5
:102A50000020209001217A2004F036FD0121084653
:102A600004F042FD4FF400401E9001208DF87C00E0
:102A700000208DF87E0002208DF87D0001208DF869
:102A80007F001EA9FE48FFF773FC4CF233701E90C6
:102A900002208DF87C0000208DF87E0003208DF848
:102AA0007D0001208DF87F001EA9F648FFF760FC2D
:102AB0004FF680701E9002208DF87C0000208DF86B
:102AC0007E0003208DF87D0001208DF87F001EA977
:102AD000ED48FFF74DFC4FF480501E9002208DF81A
:102AE0007C0000208DF87E0003208DF87D00012001
:102AF0008DF87F001EA9E548FFF73AFC4FF480509F
:102B00001E9002208DF87C0000208DF87E000320AE
:102B10008DF87D0001208DF87F001EA9DC48FFF7AD
:102B200027FC0C220021D748FFF76AFC0C22012168
:102B3000D448FFF765FC0C220421D248FFF760FC63
:102B40000C220521CF48FFF75BFC0C220821CD4861
:102B5000FFF756FC0C220921CA48FFF751FC0C2252
:102B60000A21C848FFF74CFC0C220E21C548FFF78C
:102B700047FC0C220F21C348FFF742FC0C2207211F
:102B8000C148FFF73DFC0C220821BF48FFF738FC85
:102B90000C220921BC48FFF733FC0C220A21BA4859
:102BA000FFF72EFC0C220B21B748FFF729FC0C2263
:102BB0001146B548FFF724FC0C220D21B248FFF75F
:102BC0001FFC0C220E21B048FFF71AFC0C220F212B
:102BD000AD48FFF715FC0C221146AC48FFF710FC7E
:102BE0000C221146AA48FFF70BFC0F20089000208A
:102BF00009903C200A9000200B900C900D900E90B4
:102C000009200190002002900820039000200490E9
:102C100005900690079006200F90002010901190CC
:102C20001020129000201390159014901690179079
:102C30004FF480501890002019904FF480401A9063
:102C400000201B9008A81C9001A81D900FA8FFF75A
:102C500005FB01210620FFF7E7FA322005F062FDAF
:102C60000121002003F084FF322005F05BFD0020ED
:102C700003F0BAFB8749888008468088FF280ADB72
:102C8000084680884FF6FF71884204D081488088CA
:102C9000B0F5134F7ED1D32003F054FF03F09AFB1D
:102CA0007C49888003F096FB7A49888003F092FB88
:102CB00078498880084680884FF6FF7101EA002035
:102CC0007449888003F086FB7249898808437149FA
:102CD00088800846808849F2413188425AD0BF2016
:102CE00003F030FF03F076FB6A49888003F072FB43
:102CF0006849888003F06EFB6649888003F06AFBB0
:102D000064498880084680884FF6FF7101EA0020F8
:102D10006049888003F05EFB5E49898808435D490D
:102D200088800846808846F6040188427AD0D420FC
:102D300003F008FF03F04EFB5649888003F04AFB7E
:102D40005449888003F046FB5249888008468088B1
:102D50004FF6FF7101EA00204E49888003F03AFBEC
:102D60004C49898808434B4988800846808845F249
:102D70001031884256D04FF45A4003F0E3FE03F07E
:102D800029FB444988804FF45B4003F0DBFE03F0ED
:102D900021FB00E046E03F498880084680884FF6E6
:102DA000FF7101EA00203B4988804FF45C4003F04A
:102DB000C9FE03F00FFB37498988084335498880ED
:102DC00008468088B0F5004F02D145F21050888047
:102DD0003048808845F21051884223D0A12003F06A
:102DE000B1FE03F0F7FA2B49888003F0F3FA294982
:102DF0008880084680884FF6FF7101EA0020254947
:102E0000888003F0E7FA23498988084321498880AC
:102E10000846808845F26171884203D141F663100B
:102E20001C4988801B48808849F24131884211D072
:102E30001848808845F2103188420BD015488088A8
:102E400045F21051884205D01248808841F663113E
:102E500088422DD11048006820F00F004FF020412B
:102E6000C1F81C010846D0F81C0120F47060C1F8BC
:102E70001C010846D0F81C0140F003000EE00000E1
:102E800000040240000C0240001002400014024006
:102E900000180240820200201C0100A0C1F81C01A1
:102EA0000846D0F81C0140F40070C1F81C0128E06D
:102EB000FE48808846F60401884205D0FB48808899
:102EC0004CF2055188421CD1F948006820F00F00EF
:102ED0004FF02041C1F81C010846D0F81C0120F435
:102EE0007060C1F81C010846D0F81C0140F00A00CF
:102EF000C1F81C010846D0F81C0140F44060C1F83C
:102F00001C01EA488188EBA0FDF7CCF9E7488088EE
:102F100049F2413188427CD1CF2003F013FE0020DA
:102F200003F004FEC12003F001FE302003F0FEFD9B
:102F3000ED2003F007FE642003F0F8FD032003F00A
:102F4000F5FD122003F0F2FD812003F0EFFDE820F3
:102F500003F0F8FD852003F0E9FD102003F0E6FD05
:102F60007A2003F0E3FDCB2003F0ECFD392003F0E1
:102F7000DDFD2C2003F0DAFD002003F0D7FD342026
:102F800003F0D4FD022003F0D1FDF72003F0DAFDB9
:102F9000202003F0CBFDEA2003F0D4FD002003F055
:102FA000C5FD002003F0C2FDC02003F0CBFD1B20B7
:102FB00003F0BCFDC12003F0C5FD012003F0B6FD08
:102FC000C52003F0BFFD302003F0B0FD302003F03A
:102FD000ADFDC72003F0B6FDB72003F0A7FD3620F6
:102FE00003F0B0FD482003F0A1FD3A2003F0AAFD54
:102FF000552003F09BFDB12003F0A4FD002003F059
:1030000095FD1A2003F092FDB62003F09BFD0A20E7
:1030100000E099E003F08AFDA22003F087FDF22092
:1030200003F090FD002003F081FD262003F08AFDCF
:10303000012003F07BFDE02003F084FD0F2003F06E
:1030400075FD2A2003F072FD282003F06FFD082093
:1030500003F06CFD0E2003F069FD082003F066FD0F
:10306000542003F063FDA92003F060FD432003F02A
:103070005DFD0A2003F05AFD0F2003F057FD0020EC
:1030800003F054FD002003F051FD002003F04EFD3D
:10309000002003F04BFDE12003F054FD002003F07D
:1030A00045FD152003F042FD172003F03FFD0720EA
:1030B00003F03CFD112003F039FD062003F036FD3E
:1030C0002B2003F033FD562003F030FD3C2003F0AD
:1030D0002DFD052003F02AFD102003F027FD0F2011
:1030E00003F024FD3F2003F021FD3F2003F01EFDEF
:1030F0000F2003F01BFD2B2003F024FD002003F024
:1031000015FD002003F012FD012003F00FFD3F200C
:1031100003F00CFD2A2003F015FD002003F006FD4E
:10312000002003F003FD002003F000FDEF2003F07A
:10313000FDFC112003F006FD782005F0F3FA2920AC
:1031400003F000FD03F02AB95848808846F60401D0
:1031500088427CD1112003F0F5FC142005F0E2FA3E
:10316000D02003F0EFFC072003F0E0FC422003F046
:10317000DDFC1D2003F0DAFCD12003F0E3FC00208D
:1031800003F0D4FC1A2003F0D1FC092003F0CEFC9C
:10319000D22003F0D7FC012003F0C8FC222003F06A
:1031A000C5FCC02003F0CEFC102003F0BFFC3B2088
:1031B00003F0BCFC002003F0B9FC022003F0B6FCD5
:1031C000112003F0B3FCC52003F0BCFC032003F086
:1031D000ADFCC82003F0B6FC002003F0A7FC2520BE
:1031E00003F0A4FC212003F0A1FC052003F09EFCC9
:1031F000002003F09BFC0A2003F098FC652003F0FC
:1032000095FC252003F092FC772003F08FFC5020E2
:1032100003F08CFC0F2003F089FC002003F086FCF7
:10322000F82003F08FFC012003F080FCFE2003F067
:1032300089FC002003F07AFC022003F077FC2020B8
:1032400003F080FC362003F07DFC082000E039E02C
:1032500003F06CFC3A2003F075FC552003F066FC8B
:103260002B2003F06FFC002003F060FC002003F033
:103270005DFC012003F05AFC3F2003F057FC2A209C
:1032800003F060FC002003F051FC002003F04EFC32
:10329000012003F04BFCDF2003F048FC782005F010
:1032A00041FA292003F04EFC4CE700008202002086
:1032B0001C0100A0204C43442049443A25780D0AC3
:1032C00000000000FE48808845F21031884240F03E
:1032D0007C87ED2003F036FC012003F027FCFE2064
:1032E00003F024FCEE2003F02DFCDE2003F01EFC96
:1032F000212003F01BFCF12003F024FC012003F04B
:1033000015FCDF2003F01EFC102003F00FFCC4208E
:1033100003F018FC8F2003F009FCC62003F012FC18
:10332000002003F003FCE22003F000FCE22003F0A5
:10333000FDFBE22003F0FAFBBF2003F003FCAA2010
:1033400003F0F4FBB02003F0FDFB0D2003F0EEFBD7
:10335000002003F0EBFB0D2003F0E8FB002003F05E
:10336000E5FB112003F0E2FB002003F0DFFB192056
:1033700003F0DCFB002003F0D9FB212003F0D6FB97
:10338000002003F0D3FB2D2003F0D0FB002003F03E
:10339000CDFB3D2003F0CAFB002003F0C7FB5D20FE
:1033A00003F0C4FB002003F0C1FB5D2003F0BEFB73
:1033B000002003F0BBFBB12003F0C4FB802003F02E
:1033C000B5FB002003F0B2FB8B2003F0AFFB002025
:1033D00003F0ACFB962003F0A9FB002003F0A6FB52
:1033E000B22003F0AFFB002003F0A0FB002003F0AD
:1033F0009DFB022003F09AFB002003F097FB0320C3
:1034000003F094FB002003F091FBB32003F09AFB40
:10341000002003F08BFB002003F088FB002003F06A
:1034200085FB002003F082FB002003F07FFB0020DF
:1034300003F07CFB002003F079FB002003F076FB17
:10344000002003F073FB002003F070FB002003F06A
:103450006DFB002003F06AFB002003F067FB0020F7
:1034600003F064FB002003F061FB002003F05EFB2F
:10347000002003F05BFB002003F058FB002003F06A
:1034800055FB002003F052FB002003F04FFB00200F
:1034900003F04CFB002003F049FB002003F046FB47
:1034A000B42003F04FFB8B2003F040FB002003F01F
:1034B0003DFB962003F03AFB002003F037FBA120F0
:1034C00003F034FB002003F031FBB52003F03AFB9E
:1034D000022003F02BFB002003F028FB032003F065
:1034E00025FB002003F022FB042003F01FFB00203B
:1034F00003F01CFBB62003F025FB002003F016FBB5
:10350000002003F013FBB72003F01CFB002003F0A6
:103510000DFB002003F00AFB3F2003F007FB002017
:1035200003F004FB5E2003F001FB002003F0FEFA31
:10353000642003F0FBFA002003F0F8FA8C2003F07B
:10354000F5FA002003F0F2FAAC2003F0EFFA0020C5
:1035500003F0ECFADC2003F0E9FA002003F0E6FACD
:10356000702003F0E3FA002003F0E0FA902003F06B
:10357000DDFA002003F0DAFAEB2003F0D7FA00209E
:1035800003F0D4FADC2003F0D1FA002003F0CEFAE5
:10359000B82003F0D7FA002003F0C8FA002003F0A7
:1035A000C5FA002003F0C2FA002003F0BFFA0020A1
:1035B00003F0BCFA002003F0B9FA002003F0B6FAD9
:1035C000002003F0B3FABA2003F0BCFA242003F081
:1035D000ADFA002003F0AAFA002003F0A7FA0020B9
:1035E00003F0A4FAC12003F0ADFA202003F09EFA04
:1035F000002003F09BFA542003F098FA002003F017
:1036000095FAFF2003F092FA002003F08FFAC2200F
:1036100003F098FA0A2003F089FA002003F086FAF2
:10362000042003F083FA002003F080FAC32003F0A3
:1036300089FA3C2003F07AFA002003F077FA3A2066
:1036400003F074FA002003F071FA392003F06EFAE7
:10365000002003F06BFA372003F068FA002003F033
:1036600065FA3C2003F062FA002003F05FFA36208E
:1036700003F05CFA002003F059FA322003F056FA06
:10368000002003F053FA2F2003F050FA002003F03B
:103690004DFA2C2003F04AFA002003F047FA2920C3
:1036A00003F044FA002003F041FA262003F03EFA2A
:1036B000002003F03BFA242003F038FA002001E058
:1036C0008202002003F032FA242003F02FFA0020B7
:1036D00003F02CFA232003F029FA002003F026FA45
:1036E0003C2003F023FA002003F020FA362003F0F8
:1036F0001DFA002003F01AFA322003F017FA002016
:1037000003F014FA2F2003F011FA002003F00EFA50
:103710002C2003F00BFA002003F008FA292003F014
:1037200005FA002003F002FA262003F0FFF900203A
:1037300003F0FCF9242003F0F9F9002003F0F6F976
:10374000242003F0F3F9002003F0F0F9232003F024
:10375000EDF9002003F0EAF9C42003F0F3F9622048
:1037600003F0E4F9002003F0E1F9052003F0DEF9AD
:10377000002003F0DBF9842003F0D8F9002003F0E7
:10378000D5F9F02003F0D2F9002003F0CFF918208A
:1037900003F0CCF9002003F0C9F9A42003F0C6F926
:1037A000002003F0C3F9182003F0C0F9002003F053
:1037B000BDF9502003F0BAF9002003F0B7F90C204E
:1037C00003F0B4F9002003F0B1F9172003F0AEF9CB
:1037D000002003F0ABF9952003F0A8F9002003F0D6
:1037E000A5F9F32003F0A2F9002003F09FF9E620E9
:1037F00003F09CF9002003F099F9C52003F0A2F929
:10380000322003F093F9002003F090F9442003F0F4
:103810008DF9002003F08AF9652003F087F9002074
:1038200003F084F9762003F081F9002003F07EF99B
:10383000882003F07BF9002003F078F9C62003F01C
:1038400081F9202003F072F9002003F06FF91720AE
:1038500003F06CF9002003F069F9012003F066F928
:10386000002003F063F9C72003F06CF9002003F097
:103870005DF9002003F05AF9002003F057F9002009
:1038800003F054F9C82003F05DF9002003F04EF96D
:10389000002003F04BF9002003F048F9002003F06A
:1038A00045F9C92003F04EF9002003F03FF900204C
:1038B00003F03CF9002003F039F9002003F036F959
:1038C000002003F033F9002003F030F9002003F06A
:1038D0002DF9002003F02AF9002003F027F9002039
:1038E00003F024F9002003F021F9002003F01EF971
:1038F000002003F01BF9002003F018F9002003F06A
:1039000015F9002003F012F9E02003F01BF916204E
:1039100003F00CF9002003F009F91C2003F006F96C
:10392000002003F003F9212003F000F9002003F048
:10393000FDF8362003F0FAF8002003F0F7F84620EF
:1039400003F0F4F8002003F0F1F8522003F0EEF851
:10395000002003F0EBF8642003F0E8F8002003F007
:10396000E5F87A2003F0E2F8002003F0DFF88B207E
:1039700003F0DCF8002003F0D9F8992003F0D6F822
:10398000002003F0D3F8A82003F0D0F8002003F0C3
:10399000CDF8B92003F0CAF8002003F0C7F8C4201E
:1039A00003F0C4F8002003F0C1F8CA2003F0BEF809
:1039B000002003F0BBF8D22003F0B8F8002003F099
:1039C000B5F8D92003F0B2F8002003F0AFF8E020FA
:1039D00003F0ACF8002003F0A9F8F32003F0A6F8F8
:1039E000002003F0A3F8E12003F0ACF8162003F068
:1039F0009DF8002003F09AF81C2003F097F80020AF
:103A000003F094F8222003F091F8002003F08EF8E0
:103A1000362003F08BF8002003F088F8452003F0EF
:103A200085F8002003F082F8522003F07FF8002090
:103A300003F07CF8642003F079F8002003F076F8B6
:103A40007A2003F073F8002003F070F88B2003F065
:103A50006DF8002003F06AF8992003F067F8002061
:103A600003F064F8A82003F061F8002003F05EF88A
:103A7000B92003F05BF8002003F058F8C42003F0ED
:103A800055F8002003F052F8CA2003F04FF8002048
:103A900003F04CF8D22003F049F8002003F046F878
:103AA000D82003F043F8002003F040F8E02003F0B2
:103AB0003DF8002003F03AF8F32003F037F8002037
:103AC00003F034F8E22003F03DF8052003F02EF86F
:103AD000002003F02BF80B2003F028F8002003F05F
:103AE00025F81B2003F022F8002003F01FF83420F3
:103AF00003F01CF8002003F019F8442003F016F836
:103B0000002003F013F84F2003F010F8002003F01A
:103B10000DF8612003F00AF8002003F007F879207F
:103B200003F004F8002003F001F8882002F0FEFF03
:103B3000002002F0FBFF972002F0F8FF002002F0C7
:103B4000F5FFA62002F0F2FF002002F0EFFFB72001
:103B500002F0ECFF002002F0E9FFC22002F0E6FFD5
:103B6000002002F0E3FFC72002F0E0FF002002F097
:103B7000DDFFD12002F0DAFF002002F0D7FFD620CF
:103B800002F0D4FF002002F0D1FFDD2002F0CEFFD2
:103B9000002002F0CBFFF32002F0C8FF002002F06B
:103BA000C5FFE32002F0CEFF052002F0BFFF00209A
:103BB00002F0BCFF0A2002F0B9FF002002F0B6FFBD
:103BC0001C2002F0B3FF002002F0B0FF332002F00F
:103BD000ADFF002002F0AAFF442002F0A7FF002062
:103BE00002F0A4FF502002F0A1FF002002F09EFF8F
:103BF000622002F09BFF002002F098FF782002F084
:103C000095FF002002F092FF882002F08FFF002035
:103C100002F08CFF972002F089FF002002F086FF5F
:103C2000A62002F083FF002002F080FFB72002F000
:103C30007DFF002002F07AFFC22002F077FF002013
:103C400002F074FFC72002F071FF002002F06EFF47
:103C5000D12002F06BFF002002F068FFD52002F0B7
:103C600065FF002002F062FFDD2002F05FFF002010
:103C700002F05CFFF32002F059FF002002F056FF33
:103C8000E42002F05FFF012002F050FF002002F06C
:103C90004DFF012002F04AFF002002F047FF022002
:103CA00002F044FF002002F041FF2A2002F03EFF14
:103CB000002002F03BFF3C2002F038FF002002F021
:103CC00035FF4B2002F032FF002002F02FFF5D2075
:103CD00002F02CFF002002F029FF742002F026FFE2
:103CE000002002F023FF842002F020FF002002F0D9
:103CF0001DFF932002F01AFF002002F017FFA22000
:103D000002F014FF002002F011FFB32002F00EFFBA
:103D1000002002F00BFFBE2002F008FF002002F09E
:103D200005FFC42002F002FF002002F0FFFECD20BC
:103D300002F0FCFE002002F0F9FED32002F0F6FEB5
:103D4000002002F0F3FEDD2002F0F0FE002002F081
:103D5000EDFEF32002F0EAFE002002F0E7FEE5208F
:103D600002F0F0FE002002F0E1FE002002F0DEFE94
:103D7000002002F0DBFE002002F0D8FE022002F05C
:103D8000D5FE002002F0D2FE292002F0CFFE002056
:103D900002F0CCFE3C2002F0C9FE002002F0C6FE7C
:103DA0004B2002F0C3FE002002F0C0FE5D2002F0B6
:103DB000BDFE002002F0BAFE742002F0B7FE002023
:103DC00002F0B4FE842002F0B1FE002002F0AEFE4C
:103DD000932002F0ABFE002002F0A8FEA22002F029
:103DE000A5FE002002F0A2FEB32002F09FFE0020FC
:103DF00002F09CFEBE2002F099FE002002F096FE2A
:103E0000C42002F093FE002002F090FECD2002F0CC
:103E10008DFE002002F08AFED32002F087FE0020F3
:103E200002F084FEDC2002F081FE002002F07EFE23
:103E3000F32002F07BFE002002F078FEE62002F084
:103E400081FE112002F072FE002002F06FFE34208D
:103E500002F06CFE002002F069FE562002F066FEC1
:103E6000002002F063FE762002F060FE002002F0E7
:103E70005DFE772002F05AFE002002F057FE662019
:103E800002F054FE002002F051FE882002F04EFEA7
:103E9000002002F04BFE992002F048FE002002F0C4
:103EA00045FEBB2002F042FE002002F03FFE9920BA
:103EB00002F03CFE002002F039FE662002F036FEE1
:103EC000002002F033FE552002F030FE002002F008
:103ED0002DFE552002F02AFE002002F027FE45208C
:103EE00002F024FE002002F021FE432002F01EFE1C
:103EF000002002F01BFE442002F018FE002002F019
:103F000015FEE72002F01EFE322002F00FFE002018
:103F100002F00CFE552002F009FE002002F006FE21
:103F2000762002F003FE002002F000FE662002F080
:103F3000FDFD002002F0FAFD672002F0F7FD0020F1
:103F400002F0F4FD672002F0F1FD002002F0EEFD2A
:103F5000872002F0EBFD002002F0E8FD992002F03E
:103F6000E5FD002002F0E2FDBB2002F0DFFD0020B5
:103F700002F0DCFD992002F0D9FD002002F0D6FD10
:103F8000772002F0D3FD002002F0D0FD442002F0A3
:103F9000CDFD002002F0CAFD562002F0C7FD002032
:103FA00002F0C4FD232002F0C1FD002002F0BEFD9E
:103FB000332002F0BBFD002002F0B8FD452002F0E6
:103FC000B5FD002002F0B2FDE82002F0BBFD0020AC
:103FD00002F0ACFD002002F0A9FD992002F0A6FD40
:103FE000002002F0A3FD872002F0A0FD002002F0D7
:103FF0009DFD882002F09AFD002002F097FD7720B9
:1040000002F094FD002002F091FD662002F08EFD8A
:10401000002002F08BFD882002F088FD002002F0D5
:1040200085FDAA2002F082FD002002F07FFDBB206A
:1040300002F07CFD002002F079FD992002F076FD6F
:10404000002002F073FD662002F070FD002002F0F7
:104050006DFD552002F06AFD002002F067FD55203D
:1040600002F064FD002002F061FD442002F05EFDDC
:10407000002002F05BFD442002F058FD002002F019
:1040800055FD552002F052FD002002F04FFDE920C1
:1040900002F058FDAA2002F049FD002002F046FD82
:1040A000002002F043FD002002F040FD002002F05D
:1040B00049FDAA2002F03AFDCF2002F043FD002086
:1040C00002F034FD002002F031FD002002F02EFD50
:1040D000002002F02BFD002002F028FD002002F05D
:1040E00025FD002002F022FD002002F01FFD00202F
:1040F00002F01CFD002002F019FD002002F016FD68
:10410000002002F013FD002002F010FD002002F05C
:104110000DFD002002F00AFD002002F007FD002046
:1041200002F004FDF02002F00DFD002002F0FEFC84
:10413000502002F0FBFC002002F0F8FC002002F00E
:10414000F5FC002002F0F2FCF32002F0FBFC002062
:1041500002F0ECFCF92002F0F5FC062002F0E6FC8F
:10416000102002F0E3FC292002F0E0FC002002F025
:10417000DDFC3A2002F0E6FC552002F0D7FC1120CD
:1041800002F0E0FC642004F0CDFA292002F0DAFC11
:10419000352002F0D7FC002002F0C8FC512002F0CC
:1041A000D1FCFF2002F0C2FC532002F0CBFC2C20FB
:1041B00002F0BCFC552002F0C5FC822002F0B6FCE7
:1041C0002C2002F0BFFC02F0E9B8FE48808845F2DE
:1041D000105188427ED155214FF4704002F0C8FC46
:1041E000AA214FF2010002F0C3FC52214FF202005B
:1041F00002F0BEFC08214FF2030002F0B9FC0121DD
:104200004FF2040002F0B4FC0D214FF4304002F0F4
:10421000AFFC0D214BF2010002F0AAFC0D214BF284
:10422000020002F0A5FC34214FF4364002F0A0FC5D
:1042300034214BF2016002F09BFC34214BF202600E
:1042400002F096FC0D214FF4314002F091FC0D215B
:104250004BF2011002F08CFC0D214BF2021002F027
:1042600087FC34214FF4374002F082FC34214BF2BA
:10427000017002F07DFC34214BF2027002F078FCF8
:1042800000214FF4324002F073FC00214BF2012078
:1042900002F06EFC00214BF2022002F069FC2421A6
:1042A0004FF4384002F064FC24214BF6010002F088
:1042B0005FFC24214BF6020002F05AFC01214FF46E
:1042C0003F4002F055FC0F214FF4334002F050FC08
:1042D0000F2100E0FEE34BF2013002F049FC0F2118
:1042E0004BF2023002F044FC34214FF4394002F02A
:1042F0003FFC34214BF6011002F03AFC34214BF61E
:10430000021002F035FC08214FF4354002F030FC79
:1043100008214BF2015002F02BFC08214BF2025015
:1043200002F026FC03214FF4424002F021FC24213C
:104330004FF43A4002F01CFC24214BF6012002F01D
:1043400017FC24214BF6022002F012FC00214FF44E
:104350003C4002F00DFC78214BF6014002F008FCD5
:1043600000214BF6024002F003FC00214FF43D40D7
:1043700002F0FEFB78214BF6015002F0F9FB002120
:104380004BF6025002F0F4FB00214FF43E4002F0E5
:10439000EFFB64214BF6016002F0EAFB00214FF4D1
:1043A000514002F0E5FB33214DF2011002F0E0FB39
:1043B00000214DF2021002F0DBFB34214DF203101C
:1043C00002F0D6FB00214DF2041002F0D1FB3A219D
:1043D0004DF2051002F0CCFB00214DF2061002F068
:1043E000C7FB4A214DF2071002F0C2FB00214DF23B
:1043F000081002F0BDFB5C214DF2091002F0B8FB81
:1044000000214DF20A1002F0B3FB81214DF20B1096
:1044100002F0AEFB00214DF20C1002F0A9FBA62128
:104420004DF20D1002F0A4FB00214DF20E1002F02F
:104430009FFBE5214DF20F1002F09AFB01214DF296
:10444000101002F095FB13214DF2111002F090FBB9
:1044500001214DF2121002F08BFB54214DF213108A
:1044600002F086FB01214DF2141002F081FB822143
:104470004DF2151002F07CFB01214DF2161002F0F6
:1044800077FBCA214DF2171002F072FB02214DF2A8
:10449000181002F06DFB00214DF2191002F068FBBC
:1044A00002214DF21A1002F063FB01214DF21B10A4
:1044B00002F05EFB02214DF21C1002F059FB342188
:1044C0004DF21D1002F054FB02214DF21E1002F0BD
:1044D0004FFB67214DF21F1002F04AFB02214DF203
:1044E000201002F045FB84214DF2211002F040FB28
:1044F00002214DF2221002F03BFBA4214DF22310C9
:1045000002F036FB02214DF2241002F031FBB721FC
:104510004DF2251002F02CFB02214DF2261002F084
:1045200027FBCF214DF2271002F022FB02214DF292
:10453000281002F01DFBDE214DF2291002F018FBBD
:1045400002214DF22A1002F013FBF2214DF22B1042
:1045500002F00EFB02214DF22C1002F009FBFE21AD
:104560004DF22D1002F004FB03214DF22E1002F04B
:10457000FFFA10214DF22F1002F0FAFA03214DF24A
:10458000301002F0F5FA33214DF2311002F0F0FA5A
:1045900003214DF2321002F0EBFA6D214DF233108F
:1045A00002F0E6FA00214FF4524002F0E1FA332122
:1045B0004DF2012002F0DCFA00214DF2022002F05F
:1045C000D7FA01E08202002034214DF2032002F0EC
:1045D000CFFA00214DF2042002F0CAFA3A214DF23E
:1045E000052002F0C5FA00214DF2062002F0C0FAC3
:1045F0004A214DF2072002F0BBFA00214DF20820BB
:1046000002F0B6FA5C214DF2092002F0B1FA002165
:104610004DF20A2002F0ACFA81214DF20B2002F09B
:10462000A7FA00214DF20C2002F0A2FAA6214DF2C9
:104630000D2002F09DFA00214DF20E2002F098FAB2
:10464000E5214DF20F2002F093FA01214DF21020E6
:1046500002F08EFA13214DF2112002F089FA0121A5
:104660004DF2122002F084FA54214DF2132002F090
:104670007FFA01214DF2142002F07AFA82214DF2E4
:10468000152002F075FA01214DF2162002F070FAA1
:10469000CA214DF2172002F06BFA02214DF21820C8
:1046A00002F066FA00214DF2192002F061FA0221AF
:1046B0004DF21A2002F05CFA01214DF21B2002F0AB
:1046C00057FA02214DF21C2002F052FA34214DF229
:1046D0001D2002F04DFA02214DF21E2002F048FA90
:1046E00067214DF21F2002F043FA02214DF22020F3
:1046F00002F03EFA84214DF2212002F039FA022123
:104700004DF2222002F034FAA4214DF2232002F0CF
:104710002FFA02214DF2242002F02AFAB7214DF29D
:10472000252002F025FA02214DF2262002F020FA7F
:10473000CF214DF2272002F01BFA02214DF2282052
:1047400002F016FADE214DF2292002F011FA0221C0
:104750004DF22A2002F00CFAF2214DF22B2002F049
:1047600007FA02214DF22C2002F002FAFE214DF24E
:104770002D2002F0FDF903214DF22E2002F0F8F970
:1047800010214DF22F2002F0F3F903214DF23020D9
:1047900002F0EEF933214DF2312002F0E9F9032164
:1047A0004DF2322002F0E4F96D214DF2332002F097
:1047B000DFF900214FF4534002F0DAF933214DF2D2
:1047C000013002F0D5F900214DF2023002F0D0F9AB
:1047D00034214DF2033002F0CBF900214DF20430C8
:1047E00002F0C6F93A214DF2053002F0C1F900217C
:1047F0004DF2063002F0BCF94A214DF2073002F0CA
:10480000B7F900214DF2083002F0B2F95C214DF207
:10481000093002F0ADF900214DF20A3002F0A8F99A
:1048200081214DF20B3002F0A3F900214DF20C3042
:1048300002F09EF9A6214DF20D3002F099F9002107
:104840004DF20E3002F094F9E5214DF20F3002F0F6
:104850008FF901214DF2103002F08AF913214DF247
:10486000113002F085F901214DF2123002F080F989
:1048700054214DF2133002F07BF901214DF2143036
:1048800002F076F982214DF2153002F071F9012122
:104890004DF2163002F06CF9CA214DF2173002F0D9
:1048A00067F902214DF2183002F062F900214DF251
:1048B000193002F05DF902214DF21A3002F058F978
:1048C00001214DF21B3002F053F902214DF21C3050
:1048D00002F04EF934214DF21D3002F049F9022167
:1048E0004DF21E3002F044F967214DF21F3002F004
:1048F0003FF902214DF2203002F03AF984214DF2C5
:10490000213002F035F902214DF2223002F030F967
:10491000A4214DF2233002F02BF902214DF2243074
:1049200002F026F9B7214DF2253002F021F90221DB
:104930004DF2263002F01CF9CF214DF2273002F063
:1049400017F902214DF2283002F012F9DE214DF262
:10495000293002F00DF902214DF22A3002F008F957
:10496000F2214DF22B3002F003F902214DF22C30EE
:1049700002F0FEF8FE214DF22D3002F0F9F803218D
:104980004DF22E3002F0F4F810214DF22F3002F0EB
:10499000EFF803214DF2303002F0EAF833214DF206
:1049A000313002F0E5F803214DF2323002F0E0F848
:1049B0006D214DF2333002F0DBF800214FF454400A
:1049C00002F0D6F833214DF2014002F0D1F8002177
:1049D0004DF2024002F0CCF834214DF2034002F0D7
:1049E000C7F800214DF2044002F0C2F83A214DF21E
:1049F000054002F0BDF800214DF2064002F0B8F883
:104A00004A214DF2074002F0B3F800214DF2084070
:104A100002F0AEF85C214DF2094002F0A9F8002145
:104A20004DF20A4002F0A4F881214DF20B4002F051
:104A30009FF800214DF20C4002F09AF8A6214DF2A9
:104A40000D4002F095F800214DF20E4002F090F872
:104A5000E5214DF20F4002F08BF801214DF210409C
:104A600002F086F813214DF2114002F081F8012185
:104A70004DF2124002F07CF854214DF2134002F046
:104A800077F801214DF2144002F072F882214DF2C4
:104A9000154002F06DF801214DF2164002F068F861
:104AA000CA214DF2174002F063F802214DF218407E
:104AB00002F05EF800214DF2194002F059F802218F
:104AC0004DF21A4002F054F801214DF21B4002F061
:104AD0004FF800E004E302214DF21C4002F048F8D8
:104AE00034214DF21D4002F043F802214DF21E40E8
:104AF00002F03EF867214DF21F4002F039F8022122
:104B00004DF2204002F034F884214DF2214002F0B1
:104B10002FF802214DF2224002F02AF8A4214DF292
:104B2000234002F025F802214DF2244002F020F843
:104B3000B7214DF2254002F01BF802214DF226402C
:104B400002F016F8CF214DF2274002F011F80221B1
:104B50004DF2284002F00CF8DE214DF2294002F01F
:104B600007F802214DF22A4002F002F8F2214DF23C
:104B70002B4001F0FDFF02214DF22C4001F0F8FF27
:104B8000FE214DF22D4001F0F3FF03214DF22E40A6
:104B900001F0EEFF10214DF22F4001F0E9FF03215B
:104BA0004DF2304001F0E4FF33214DF2314001F08D
:104BB000DFFF03214DF2324001F0DAFF6D214DF2AB
:104BC000334001F0D5FF00214FF4554001F0D0FFF4
:104BD00033214DF2015001F0CBFF00214DF2025084
:104BE00001F0C6FF34214DF2035001F0C1FF002156
:104BF0004DF2045001F0BCFF3A214DF2055001F096
:104C0000B7FF00214DF2065001F0B2FF4A214DF2EC
:104C1000075001F0ADFF00214DF2085001F0A8FF50
:104C20005C214DF2095001F0A3FF00214DF20A5022
:104C300001F09EFF81214DF20B5001F099FF002100
:104C40004DF20C5001F094FFA6214DF20D5001F0F1
:104C50008FFF00214DF20E5001F08AFFE5214DF249
:104C60000F5001F085FF01214DF2105001F080FF3F
:104C700013214DF2115001F07BFF01214DF2125032
:104C800001F076FF54214DF2135001F071FF012124
:104C90004DF2145001F06CFF82214DF2155001F0DD
:104CA00067FF01214DF2165001F062FFCA214DF25B
:104CB000175001F05DFF02214DF2185001F058FF2E
:104CC00000214DF2195001F053FF02214DF21A500C
:104CD00001F04EFF01214DF21B5001F049FF02216E
:104CE0004DF21C5001F044FF34214DF21D5001F0F3
:104CF0003FFF02214DF21E5001F03AFF67214DF2B5
:104D00001F5001F035FF02214DF2205001F030FF1D
:104D100084214DF2215001F02BFF02214DF222504F
:104D200001F026FFA4214DF2235001F021FF0221C2
:104D30004DF2245001F01CFFB7214DF2255001F037
:104D400017FF02214DF2265001F012FFCF214DF244
:104D5000275001F00DFF02214DF2285001F008FF0D
:104D6000DE214DF2295001F003FF02214DF22A50BD
:104D700001F0FEFEF2214DF22B5001F0F9FE02216E
:104D80004DF22C5001F0F4FEFE214DF22D5001F0B9
:104D9000EFFE03214DF22E5001F0EAFE10214DF2FC
:104DA0002F5001F0E5FE03214DF2305001F0E0FEFE
:104DB00033214DF2315001F0DBFE03214DF2325030
:104DC00001F0D6FE6D214DF2335001F0D1FE0021ED
:104DD0004FF4564001F0CCFE33214DF2016001F05A
:104DE000C7FE00214DF2026001F0C2FE34214DF2F7
:104DF000036001F0BDFE00214DF2046001F0B8FE39
:104E00003A214DF2056001F0B3FE00214DF206603B
:104E100001F0AEFE4A214DF2076001F0A9FE00212B
:104E20004DF2086001F0A4FE5C214DF2096001F032
:104E30009FFE00214DF20A6001F09AFE81214DF2A1
:104E40000B6001F095FE00214DF20C6001F090FE28
:104E5000A6214DF20D6001F08BFE00214DF20E6097
:104E600001F086FEE5214DF20F6001F081FE012187
:104E70004DF2106001F07CFE13214DF2116001F043
:104E800077FE01214DF2126001F072FE54214DF2C5
:104E9000136001F06DFE01214DF2146001F068FE17
:104EA00082214DF2156001F063FE01214DF2166082
:104EB00001F05EFECA214DF2176001F059FE022199
:104EC0004DF2186001F054FE00214DF2196001F01E
:104ED0004FFE02214DF21A6001F04AFE01214DF20F
:104EE0001B6001F045FE02214DF21C6001F040FE06
:104EF00034214DF21D6001F03BFE02214DF21E6097
:104F000001F036FE67214DF21F6001F031FE0221F3
:104F10004DF2206001F02CFE84214DF2216001F061
:104F200027FE02214DF2226001F022FEA4214DF263
:104F3000236001F01DFE02214DF2246001F018FEF5
:104F4000B7214DF2256001F013FE02214DF22660DB
:104F500001F00EFECF214DF2276001F009FE022183
:104F60004DF2286001F004FEDE214DF2296001F0CF
:104F7000FFFD02214DF22A6001F0FAFDF2214DF20F
:104F80002B6001F0F5FD02214DF22C6001F0F0FDE7
:104F9000FE214DF22D6001F0EBFD03214DF22E605C
:104FA00001F0E6FD10214DF22F6001F0E1FD03213B
:104FB0004DF2306001F0DCFD33214DF2316001F043
:104FC000D7FD03214DF2326001F0D2FD6D214DF28B
:104FD000336001F0CDFD55214FF4704001F0C8FD64
:104FE000AA214FF2010001F0C3FD52214FF202004D
:104FF00001F0BEFD08214FF2030001F0B9FD0021D0
:105000004FF2040001F0B4FDCC214FF4314001F027
:10501000AFFD00214BF2011001F0AAFD05214FF474
:10502000364001F0A5FD70214FF4374001F0A0FD9E
:1050300070214BF2017001F09BFD01214FF43840CB
:1050400001F096FD03214BF6010001F091FD0321D3
:105050004BF6020001F08CFD03214BF6030001F03A
:1050600087FD02214FF43C4001F082FD00214BF608
:10507000014001F07DFD00214BF6024001F078FD7A
:10508000D0214FF4494001F073FD02214CF601108C
:1050900001F06EFD50214CF6021001F069FD502127
:1050A0004CF6031001F064FD50214CF6041001F0A1
:1050B0005FFD00214FF4545001F05AFD55214FF48B
:1050C000685001F055FD4FF4885001F03BFD782009
:1050D00003F044FB4FF4245001F034FD01F05EB9BD
:1050E000FE48808849F2253188427DD147F6F0019B
:1050F000E52001F03DFD4FF48071012001F038FD05
:105100004FF4E061022001F033FD41F23001032051
:1051100001F02EFD0021042001F02AFD40F20221C1
:10512000082001F025FD0021092001F021FD0021CA
:105130000A2001F01DFD00210C2001F019FD0021C5
:105140000D2001F015FD00210F2001F011FD0021BF
:10515000102001F00DFD0721112001F009FD0021B3
:10516000122001F005FD0021132001F001FD0021B6
:10517000072001F0FDFC41F29061102001F0F8FCE5
:1051800040F22721112001F0F3FC9D21122001F0B3
:10519000EFFC4FF4C851132001F0EAFC252129202F
:1051A00001F0E6FC0D212B2001F0E2FC072130206C
:1051B00001F0DEFC40F20331312001F0D9FC032183
:1051C000322001F0D5FC40F20621352001F0D0FC60
:1051D0000821362001F0CCFC40F20641372001F0D6
:1051E000C7FC4FF4417100E058E0382001F0C0FCEA
:1051F0000721392001F0BCFC40F202613C2001F0A3
:10520000B7FC08213D2001F0B3FC0021502001F043
:10521000AFFCEF21512001F0ABFC0021522001F046
:10522000A7FC40F23F11532001F0A2FC4FF42741AC
:10523000602001F09DFC0121612001F099FC00211A
:105240006A2001F095FC0021802001F091FC0021F2
:10525000812001F08DFC0021822001F089FC0021D9
:10526000832001F085FC0021842001F081FC0021D5
:10527000852001F07DFC1021902001F079FC4FF495
:10528000C061922001F074FC40F23311072001F05C
:105290006FFC2221002001F06BFC1FE78F48808803
:1052A00049F2283188427DD141F28F01EC2001F092
:1052B0005FFC41F23421EF2001F05AFC4FF4807181
:1052C000012001F055FC4FF4E061022001F050FC98
:1052D00041F23001032001F04BFC0021042001F0D9
:1052E00047FC40F20221082001F042FC0021092085
:1052F00001F03EFC00210A2001F03AFC01210C20C3
:1053000001F036FC00210D2001F032FC00210F20BD
:1053100001F02EFC0021102001F02AFC07211120B1
:1053200001F026FC0021122001F022FC00211320B4
:1053300001F01EFC0121072001F01AFC322003F0CD
:10534000F1F941F29041102001F012FC40F22721C6
:10535000112001F00DFC322003F0E4F98A21122023
:1053600001F006FC322003F0DDF94FF4D051132098
:1053700001F0FEFB0621292001F0FAFB0D212B2074
:1053800001F0F6FB322003F0CDF90021202001F0DE
:10539000EFFB0021212001F0EBFB322003F0C2F9EA
:1053A000002100E075E0302001F0E2FB40F20461F2
:1053B000312001F0DDFB40F20531322001F0D8FB55
:1053C0000021352001F0D4FB40F60941362001F0E0
:1053D000CFFB4FF40171372001F0CAFB40F20131DD
:1053E000382001F0C5FB40F20771392001F0C0FB05
:1053F00000213C2001F0BCFB40F60A213D2001F0D9
:10540000B7FB322003F08EF90021502001F0B0FBF1
:10541000EF21512001F0ACFB0021522001F0A8FB4C
:1054200040F23F11532001F0A3FB4FF427416020CD
:1054300001F09EFB0121612001F09AFB00216A200E
:1054400001F096FB0021802001F092FB00218120D9
:1054500001F08EFB0021822001F08AFB00218320D5
:1054600001F086FB0021842001F082FB00218520D1
:1054700001F07EFB1021902001F07AFB4FF4C06117
:10548000922001F075FB40F23311072001F070FB10
:1054900024E61248808849F2203188427ED10021DA
:1054A000084601F065FB4FF48071012001F060FBBC
:1054B0004FF4E061022001F05BFB41F23001032078
:1054C00001F056FB0021042001F052FB40F20221C2
:1054D000082001F04DFB0021092001E0820200209C
:1054E00001F046FB00210A2001F042FB01210C20C3
:1054F00001F03EFB00210D2001F03AFB00210F20BE
:1055000001F036FB322003F00DF940F201110720C3
:1055100001F02EFB322003F005F94FF486511020E4
:1055200001F026FB0721112001F022FB4FF48871C6
:10553000122001F01DFB4FF43061132001F018FB25
:105540000021292001F014FB44F210012B2001F06E
:105550000FFB0021502001F00BFBEF21512001F047
:1055600007FB0021522001F003FB40F23F115320C2
:1055700001F0FEFA4FF41C51602001F0F9FA01210C
:10558000612001F0F5FA00216A2001F0F1FA002112
:10559000802001F0EDFA0021812000E030E001F0F0
:1055A000E7FA0021822001F0E3FA0021832001F0D4
:1055B000DFFA0021842001F0DBFA0021852001F0D0
:1055C000D7FA1021902001F0D3FA0021922001F0A7
:1055D000CFFA0121932001F0CBFA4FF48871952086
:1055E00001F0C6FA0021972001F0C2FA00219820AC
:1055F00001F0BEFA40F27311072001F0B9FA6DE52F
:10560000FE48808849F2313188427DD141F214014F
:10561000E72001F0ADFA4FF48071012001F0A8FA03
:105620004FF40071022001F0A3FA41F23801032087
:1056300001F09EFA40F20221082001F099FA0021BF
:10564000092001F095FA00210A2001F091FA0021C9
:105650000C2001F08DFA00210D2001F089FA0021C3
:105660000F2001F085FA0021102001F081FA0721B6
:10567000112001F07DFA0021122001F079FA0021B9
:10568000132001F075FAC82003F04CF841F2906144
:10569000102001F06DFA40F22721112001F068FA84
:1056A000322003F03FF80C21122001F061FA322081
:1056B00003F038F84FF40061132001F059FA11217A
:1056C000292001F055FA0B212B2001F051FA32204C
:1056D00003F028F80021202001F04AFA40F23F119F
:1056E000212001F045FA0021302001F041FA4FF469
:1056F0008371312001F03CFA0021322001F038FAA8
:105700004FF40171352000E064E001F031FA41F21C
:105710000A61362001F02CFA40F20771372001F0BF
:1057200027FA4FF48371382001F022FA40F2077112
:10573000392001F01DFA40F202413C2001F018FA34
:1057400040F60F413D2001F013FA0021502001F0F6
:105750000FFAEF21512001F00BFA0021522001F045
:1057600007FA40F23F11532001F002FA4FF41C51A6
:10577000602001F0FDF90121612001F0F9F900211B
:105780006A2001F0F5F90021802001F0F1F90021F3
:10579000812001F0EDF90021822001F0E9F90021DA
:1057A000832001F0E5F90021842001F0E1F90021D6
:1057B000852001F0DDF91021902001F0D9F94FF496
:1057C000C061922001F0D4F940F23311072001F0BA
:1057D000CFF983E48948808845F2084188427DD129
:1057E0004FF48071012001F0C3F94FF4E061022011
:1057F00001F0BEF941F23001032001F0B9F90021B6
:10580000042001F0B5F940F20721082001F0B0F9B9
:105810000021092001F0ACF900210A2001F0A8F9CB
:1058200000210C2001F0A4F900210D2001F0A0F9C5
:1058300000210F2001F09CF9142002F073FF41F2C7
:10584000B061102001F094F90121112001F090F9CC
:105850000121172001F08CF94FF49C71122001F006
:1058600087F94FF40061132001F082F90921292002
:1058700001F07EF909212A2001F07AF90021A42003
:1058800001F076F90021502001F072F9EF2151204A
:1058900001F06EF90021522001F06AF940F23F1147
:1058A000532001F065F94FF41C51602001F060F9BC
:1058B0000121612001F05CF900216A2001F058F912
:1058C0000021802001F054F90021812001F050F9DD
:1058D0000021822001F04CF9002100E024E0832027
:1058E00001F046F90021842001F042F900218520D1
:1058F00001F03EF91321902001F03AF900219220A5
:1059000001F036F90321932001F032F94FF4887148
:10591000952001F02DF940F27311072001F028F9CC
:10592000322002F0FFFEB8E43448808841F205518D
:1059300088427DD10021072001F01AF9322002F0BF
:10594000F1FE4FF48E71122001F012F90121A42012
:1059500001F00EF90F21082001F00AF908210A20B0
:1059600001F006F908210D2001F002F940F207715B
:10597000302001F0FDF80721312001F0F9F840F264
:105980000361322001F0F4F84FF4E061332001F0BC
:10599000EFF840F20221342001F0EAF8022135202C
:1059A00001F0E6F841F60F71362001F0E1F840F21F
:1059B0000771372001F0DCF80021382001F0D8F819
:1059C0000021392001F0D4F840F207713A2001F0AB
:1059D000CFF800213B2001F0CBF807213C2001F05B
:1059E000C7F800213D2001F0C3F8322002F09AFEF2
:1059F0000121072001F0BCF8012101E08202002012
:105A0000172001F0B5F8322002F08CFE4FF4BD51A2
:105A1000102001F0ADF840F21721112001F0A8F894
:105A20004FF48F71122001F0A3F84FF4706100E081
:105A300098E0132001F09CF800212A2001F098F84A
:105A40000A21292001F094F84FF49F71122001F0EF
:105A50008FF80021502001F08BF8EF21512001F048
:105A600087F80021522001F083F840F23F115320C3
:105A700001F07EF84FF41C51602001F079F801210B
:105A8000612001F075F800216A2001F071F8002111
:105A9000802001F06DF80021812001F069F80021DB
:105AA000822001F065F80021832001F061F80021D7
:105AB000842001F05DF80021852001F059F81321C0
:105AC000902001F055F84FF44071922001F050F809
:105AD0000521932001F04CF80021952001F048F8B1
